{
  "_format": "hh-sol-artifact-1",
  "contractName": "Indulgentia",
  "sourceName": "contracts/Indulgentia.sol",
  "abi": [
    {
      "inputs": [],
      "stateMutability": "nonpayable",
      "type": "constructor"
    },
    {
      "anonymous": false,
      "inputs": [
        {
          "indexed": true,
          "internalType": "address",
          "name": "from",
          "type": "address"
        },
        {
          "indexed": false,
          "internalType": "uint256",
          "name": "timestamp",
          "type": "uint256"
        },
        {
          "indexed": false,
          "internalType": "string",
          "name": "message",
          "type": "string"
        }
      ],
      "name": "NewMemo",
      "type": "event"
    },
    {
      "inputs": [],
      "name": "getMemos",
      "outputs": [
        {
          "components": [
            {
              "internalType": "address",
              "name": "from",
              "type": "address"
            },
            {
              "internalType": "uint256",
              "name": "timestamp",
              "type": "uint256"
            },
            {
              "internalType": "string",
              "name": "message",
              "type": "string"
            }
          ],
          "internalType": "struct Indulgentia.Memo[]",
          "name": "",
          "type": "tuple[]"
        }
      ],
      "stateMutability": "view",
      "type": "function"
    },
    {
      "inputs": [
        {
          "internalType": "string",
          "name": "_message",
          "type": "string"
        }
      ],
      "name": "sendMessage",
      "outputs": [],
      "stateMutability": "payable",
      "type": "function"
    },
    {
      "inputs": [],
      "name": "withdrawTips",
      "outputs": [],
      "stateMutability": "nonpayable",
      "type": "function"
    }
  ],
  "bytecode": "0x608060405234801561001057600080fd5b50336000806101000a81548173ffffffffffffffffffffffffffffffffffffffff021916908373ffffffffffffffffffffffffffffffffffffffff160217905550610aad806100606000396000f3fe6080604052600436106100345760003560e01c80633aaa74b214610039578063469c811014610050578063865c51721461006c575b600080fd5b34801561004557600080fd5b5061004e610097565b005b61006a600480360381019061006591906104ba565b6100f7565b005b34801561007857600080fd5b5061008161020f565b60405161008e91906106ee565b60405180910390f35b60008054906101000a900473ffffffffffffffffffffffffffffffffffffffff1673ffffffffffffffffffffffffffffffffffffffff166108fc479081150290604051600060405180830381858888f193505050506100f557600080fd5b565b600160405180606001604052803373ffffffffffffffffffffffffffffffffffffffff16815260200142815260200183815250908060018154018082558091505060019003906000526020600020906003020160009091909190915060008201518160000160006101000a81548173ffffffffffffffffffffffffffffffffffffffff021916908373ffffffffffffffffffffffffffffffffffffffff1602179055506020820151816001015560408201518160020190816101b9919061091c565b5050503373ffffffffffffffffffffffffffffffffffffffff167fdcbe0fd73754a2149c9f7a4cc69bae475d67a1faa5a8822e17168b3e3ca6bfaf4283604051610204929190610a47565b60405180910390a250565b60606001805480602002602001604051908101604052809291908181526020016000905b8282101561035757838290600052602060002090600302016040518060600160405290816000820160009054906101000a900473ffffffffffffffffffffffffffffffffffffffff1673ffffffffffffffffffffffffffffffffffffffff1673ffffffffffffffffffffffffffffffffffffffff168152602001600182015481526020016002820180546102c69061073f565b80601f01602080910402602001604051908101604052809291908181526020018280546102f29061073f565b801561033f5780601f106103145761010080835404028352916020019161033f565b820191906000526020600020905b81548152906001019060200180831161032257829003601f168201915b50505050508152505081526020019060010190610233565b50505050905090565b6000604051905090565b600080fd5b600080fd5b600080fd5b600080fd5b6000601f19601f8301169050919050565b7f4e487b7100000000000000000000000000000000000000000000000000000000600052604160045260246000fd5b6103c78261037e565b810181811067ffffffffffffffff821117156103e6576103e561038f565b5b80604052505050565b60006103f9610360565b905061040582826103be565b919050565b600067ffffffffffffffff8211156104255761042461038f565b5b61042e8261037e565b9050602081019050919050565b82818337600083830152505050565b600061045d6104588461040a565b6103ef565b90508281526020810184848401111561047957610478610379565b5b61048484828561043b565b509392505050565b600082601f8301126104a1576104a0610374565b5b81356104b184826020860161044a565b91505092915050565b6000602082840312156104d0576104cf61036a565b5b600082013567ffffffffffffffff8111156104ee576104ed61036f565b5b6104fa8482850161048c565b91505092915050565b600081519050919050565b600082825260208201905092915050565b6000819050602082019050919050565b600073ffffffffffffffffffffffffffffffffffffffff82169050919050565b600061055a8261052f565b9050919050565b61056a8161054f565b82525050565b6000819050919050565b61058381610570565b82525050565b600081519050919050565b600082825260208201905092915050565b60005b838110156105c35780820151818401526020810190506105a8565b60008484015250505050565b60006105da82610589565b6105e48185610594565b93506105f48185602086016105a5565b6105fd8161037e565b840191505092915050565b60006060830160008301516106206000860182610561565b506020830151610633602086018261057a565b506040830151848203604086015261064b82826105cf565b9150508091505092915050565b60006106648383610608565b905092915050565b6000602082019050919050565b600061068482610503565b61068e818561050e565b9350836020820285016106a08561051f565b8060005b858110156106dc57848403895281516106bd8582610658565b94506106c88361066c565b925060208a019950506001810190506106a4565b50829750879550505050505092915050565b600060208201905081810360008301526107088184610679565b905092915050565b7f4e487b7100000000000000000000000000000000000000000000000000000000600052602260045260246000fd5b6000600282049050600182168061075757607f821691505b60208210810361076a57610769610710565b5b50919050565b60008190508160005260206000209050919050565b60006020601f8301049050919050565b600082821b905092915050565b6000600883026107d27fffffffffffffffffffffffffffffffffffffffffffffffffffffffffffffffff82610795565b6107dc8683610795565b95508019841693508086168417925050509392505050565b6000819050919050565b600061081961081461080f84610570565b6107f4565b610570565b9050919050565b6000819050919050565b610833836107fe565b61084761083f82610820565b8484546107a2565b825550505050565b600090565b61085c61084f565b61086781848461082a565b505050565b5b8181101561088b57610880600082610854565b60018101905061086d565b5050565b601f8211156108d0576108a181610770565b6108aa84610785565b810160208510156108b9578190505b6108cd6108c585610785565b83018261086c565b50505b505050565b600082821c905092915050565b60006108f3600019846008026108d5565b1980831691505092915050565b600061090c83836108e2565b9150826002028217905092915050565b61092582610589565b67ffffffffffffffff81111561093e5761093d61038f565b5b610948825461073f565b61095382828561088f565b600060209050601f8311600181146109865760008415610974578287015190505b61097e8582610900565b8655506109e6565b601f19841661099486610770565b60005b828110156109bc57848901518255600182019150602085019450602081019050610997565b868310156109d957848901516109d5601f8916826108e2565b8355505b6001600288020188555050505b505050505050565b6109f781610570565b82525050565b600082825260208201905092915050565b6000610a1982610589565b610a2381856109fd565b9350610a338185602086016105a5565b610a3c8161037e565b840191505092915050565b6000604082019050610a5c60008301856109ee565b8181036020830152610a6e8184610a0e565b9050939250505056fea2646970667358221220e6bd88f2ffaa637fbaa9ed434398a429685c19214d63cbb57c4f170f9a37f2d464736f6c63430008120033",
  "linkReferences": {},
  "deployedLinkReferences": {}
}